:0400000007EF00F016
:0A0008005D82CBED06F031EF0AF047
:100800000020494E533D0056414C3D0025346900BF
:0108100000E7
:100812003EEC0BF05FEC0BF01BEC0BF097EC09F0ED
:100822008B90000E596E000E586E000E5A6E585084
:10083200D8B41EEF04F020EF04F018EF04F05804CF
:10084200D8A426EF04F028EF04F0D9EF04F0000E4C
:10085200586E560E00019219D8A432EF04F034EF0C
:1008620004F077EF04F0560E566EC29A56EF04F07B
:10087200C294C296C298D9EF04F0C284C296C298BA
:10088200D9EF04F0C294C286C298D9EF04F0C284B0
:10089200C286C298D9EF04F0C294C296C288D9EF38
:1008A20004F0000E566ED9EF04F09351966F976BD9
:1008B2009751000AD8B460EF04F052EF04F0965159
:1008C200310AD8B439EF04F0030AD8B43EEF04F089
:1008D200010AD8B443EF04F0070AD8B448EF04F091
:1008E200010AD8B44DEF04F052EF04F0410E921910
:1008F200D8A47EEF04F080EF04F0ABEF04F0410ED9
:10090200566EC288C29A92EF04F0C284C296D9EFA0
:1009120004F0C294C286D9EF04F0C284C286D9EF31
:1009220004F09351966F976B9751000AD8B49CEFDD
:1009320004F052EF04F09651310AD8B486EF04F075
:10094200030AD8B48AEF04F0010AD8B48EEF04F097
:1009520052EF04F0540E9219D8A4B2EF04F0B4EF9F
:1009620004F0C5EF04F04D0E9319D8A4BBEF04F0C8
:10097200BDEF04F0C5EF04F0540E566EC294C29659
:10098200C298C28AD9EF04F0480E9219D8A4CCEFCB
:1009920004F0CEEF04F052EF04F0490E9319D8A4FC
:1009A200D5EF04F0D7EF04F052EF04F0480E566E84
:1009B2005650D8B4DFEF04F0E1EF04F049EF05F050
:1009C200480E5618D8A4E8EF04F0EAEF04F03EEF20
:1009D20005F04F0E576E4B0E0001676F12EC09F0D7
:1009E2003EEF05F0000E596E000E586E000E5A6E64
:1009F20017EF05F0C28200016651D8B403EF05F08B
:100A020005EF05F0FCEF04F012EC09F0000E000116
:100A1200666F060E0001976F130E966FAD0EE82EED
:100A2200FED7962FFCD7972FFAD700D05850D8B4BC
:100A32001DEF05F01FEF05F0FBEF04F05804D8A4FA
:100A420025EF05F027EF05F03EEF05F0000E586E9A
:100A5200460E00019219D8A431EF05F033EF05F0EC
:100A62003EEF05F0500E9319D8A43AEF05F03CEF93
:100A720005F03EEF05F0480E566E480E5618D8A403
:100A820045EF05F047EF05F0F3EF04F012EF04F045
:100A9200450E576E520E0001676F12EC09F012EF0D
:100AA20004F007EF00F021BE59EF05F05CEF05F00E
:100AB200010E5DEF05F0000E2A6E2A50D8B464EFE5
:100AC20005F066EF05F06AEF05F0206C211ED8B044
:100AD200212A000163BF72EF05F070EF05F078EF95
:100AE20005F0000E256E010E246E7CEF05F062C04B
:100AF20024F063C025F060C026F061C027F02A50C0
:100B0200D8B486EF05F088EF05F09FEF05F02606D2
:100B1200D8A027062A50D8A491EF05F093EF05F04C
:100B220099EF05F0000E236E2B0E226E9DEF05F05D
:100B3200000E236E2D0E226E22C02AF0000E296EA8
:100B42001F0E286E000E876FD7EF05F02806D8A07B
:100B52002906680E2824D96E000E2920DA6E20C0DC
:100B620003F021C004F0000E066E0A0E056E65EC5D
:100B720008F003C009F004C00AF0CCEC0AF00950F6
:100B8200300FDF6E2406D8A025062606D8A0270639
:100B920020C003F021C004F0000E066E0A0E056E9E
:100BA20003EC08F003C020F004C021F029BEE2EFFC
:100BB20005F0295008E12804D8A0E2EF05F0E4EF9F
:100BC20005F0FAEF05F020502110D8A4EBEF05F064
:100BD200EDEF05F0A7EF05F025BEFAEF05F0255081
:100BE20006E12404D8B0F8EF05F0FAEF05F0A7EF1C
:100BF20005F02A50D8B400EF06F002EF06F00DEF30
:100C020006F02806D8A02906680E2824D96E000E00
:100C12002920DA6E2AC0DFFF1EC013F01FC014F0B5
:100C2200680E2824156E000E2920166E26C017F0B5
:100C320027C018F0BDEC08F012002DC0D9FF2EC05D
:100C4200DAFFDECFF6FFDDCFF7FF0800F550250A09
:100C5200D8A42EEF06F030EF06F0B6EF06F02DC066
:100C6200D9FF2EC0DAFFDE2A000EDD22000E0001BF
:100C7200616F000E606F60C055F0626963692DC0DC
:100C820009F02EC00AF02FC00BF030C00CF0A0EC1F
:100C920007F009C060F00AC061F0000161BF56EFC1
:100CA20006F054EF06F05BEF06F05580606D611FB1
:100CB200D8B0612B2DC0D9FF2EC0DAFFDECF37F0BE
:100CC200DDCF38F037C0F6FF38C0F7FF0800F55027
:100CD200640AD8B46FEF06F071EF06F07FEF06F00A
:100CE20037C0F6FF38C0F7FF0800F550690AD8A4EC
:100CF2007DEF06F07FEF06F0ADEF06F02FC0D9FFD3
:100D020030C0DAFFDFCF31F0020EDE26DFCF32F065
:100D1200000EDD2231C0D9FF32C0DAFFDECF33F060
:100D2200DDCF34F0010E3724316E000E3820326EE2
:100D32002DC0D9FF2EC0DAFF31C0DEFF32C0DDFF89
:100D42002BC01EF02CC01FF033C020F034C021F0A5
:100D520054EC05F0CAEF06F02DC0D9FF2EC0DAFF21
:100D6200DE2A000EDD22CAEF06F02DC0D9FF2EC00A
:100D7200DAFFDECFF6FFDDCFF7FF0800F550036E96
:100D8200046A2BC005F02CC006F03BEC07F0ADEF77
:100D920006F012000600D9CF01F0DACF02F0A1A8C6
:100DA200D5EF06F0D7EF06F0D8EF06F0A1989EAA8D
:100DB200DDEF06F0DFEF06F018EF07F0F29E5A5073
:100DC200D8A4E6EF06F0E8EF06F002EF07F0920E85
:100DD2005924D96EDA6A000EDA22AECFDFFF592A21
:100DE2005C505918D8A4F8EF06F0FAEF06F016EFA7
:100DF20007F0000E596E010E586E010E5A6E16EF74
:100E020007F08D0E5924D96EDA6A000EDA22AECFBF
:100E1200DFFF592A5C505918D8A412EF07F014EFDB
:100E220007F016EF07F0000E596E9E9AF28E9EACF6
:100E32001DEF07F01FEF07F035EF07F0F29EC4CF6A
:100E420057F0C3CF67F0C4CF64F00001656B645103
:100E5200656F646BC3506425646F000E6521656F16
:100E6200010E666FF28E9E9C02C0DAFF01C0D9FFAE
:100E72005D92110005500610D8B442EF07F044EF1E
:100E820007F04DEF07F005500610D8A44BEF07F01E
:100E92004DEF07F052EF07F0035076EC0BF09FEFA7
:100EA20007F020EE0AF00550D9260650DA22DE506D
:100EB200DE10D8B45FEF07F061EF07F07CEF07F0C8
:100EC20020EE0AF00550D9260650DA2210EE03F081
:100ED2000550E1260650E222DE50E65CE650800A2A
:100EE2000B6EDE50800A0B58D8B07AEF07F07CEF19
:100EF20007F09FEF07F020EE03F00550D9260650C9
:100F0200DA22DECF07F0DDCF08F005C0D9FF06C038
:100F1200DAFFDECF09F0DDCF0AF007500924D96EDF
:100F220008500A20DA6E03C0DFFF20EE03F00550FE
:100F3200D9260650DA22DE2A000EDD221200000E29
:100F4200116E000E106E09C0D9FF0AC0DAFFDECFA3
:100F5200F6FFDDCFF7FF0800F5502A0AD8A4B4EF58
:100F620007F0B6EF07F0EAEF07F009C0D9FF0AC0B1
:100F7200DAFFDE2A000EDD220BC0D9FF0CC0DAFF39
:100F8200DFCF0DF0020EDE26DFCF0EF0000EDD22E7
:100F92000DC0D9FF0EC0DAFFDECF10F0DDCF11F0A9
:100FA200FEEF07F010C003F011C004F0000E066E51
:100FB2000A0E056E08EC0BF00F500324106E000EA3
:100FC2000420116E09C0D9FF0AC0DAFFDE2A000E22
:100FD200DD2209C0D9FF0AC0DAFFDECFF6FFDDCF7E
:100FE200F7FF0800F550D00F0F6E090E0F64FCEFEB
:100FF20007F0FEEF07F0D3EF07F010C009F011C0C1
:101002000AF01200000E086E06BE0CEF08F00AEF9E
:1010120008F012EF08F0056C061ED8B0062A010E81
:10102200086E04BE19EF08F017EF08F01FEF08F082
:10103200036C041ED8B0042A010E081A000E0A6EB0
:10104200000E096E05500610D8B42AEF08F02CEFF6
:1010520008F054EF08F0010E076E34EF08F0D89054
:1010620005360636072A06AE39EF08F03BEF08F0E0
:1010720030EF08F0D89009360A360550035C065066
:101082000458D8A047EF08F049EF08F04EEF08F0F7
:101092000550035E0650045A0980D8900632053284
:1010A200072E3BEF08F00850D8B45AEF08F05CEF77
:1010B20008F060EF08F0096C0A1ED8B00A2A09C0CD
:1010C20003F00AC004F01200000E086E04BE6EEFB8
:1010D20008F06CEF08F074EF08F0036C041ED8B04F
:1010E200042A010E086E06BE7BEF08F079EF08F0C5
:1010F2007FEF08F0056C061ED8B0062A05500610D0
:10110200D8B486EF08F088EF08F0ACEF08F0010ED3
:10111200076E90EF08F0D89005360636072A06AE1D
:1011220095EF08F097EF08F08CEF08F00550035C9C
:1011320006500458D8A0A0EF08F0A2EF08F0A6EFDE
:1011420008F00550035E0650045AD8900632053264
:10115200072E97EF08F00850D8B4B2EF08F0B4EFBA
:1011620008F0B8EF08F0036C041ED8B0042A03C0DC
:1011720003F004C004F0120055A0C2EF08F0C4EF5F
:1011820008F0CEEF08F015C00CF016C00DF013C039
:101192000EF014C00FF0AAEC0AF018BED3EF08F05C
:1011A200D5EF08F0DBEF08F017C01CF018C01DF0F7
:1011B200DFEF08F0000E1D6E000E1C6E000E1B6E9F
:1011C200000E1A6EF1EF08F0000E046E200E036E90
:1011D20013C005F014C006F03BEC07F01A4A1B2AB4
:1011E2001C501A5C1B50800A196E1D50800A195837
:1011F200D8A0FEEF08F000EF09F0E5EF08F055B0D7
:1012020005EF09F007EF09F011EF09F015C00CF036
:1012120016C00DF013C00EF014C00FF0AAEC0AF0C5
:10122200120057C05BF02DEC0BF0030EE82EFED738
:1012320000F067C05BF02DEC0BF0030EE82EFED73A
:1012420000F06AEC0BF0010E066E010ED0EC09F014
:10125200920E076E000E086E58EC09F0010E076E32
:10126200080E086E58EC09F05650ECEC0AF0010E2C
:10127200066E020ED0EC09F0070E076E080E086E1D
:1012820058EC09F0880E416E000E426E0C0E436E51
:10129200080E446E64C045F065C046F084EC0AF066
:1012A200880E076E000E086E58EC09F01200000E50
:1012B2000C6E000E0B6E78EF09F00B500724096ECE
:1012C2000C5008200A6E09C0F6FF0AC0F7FFF86A40
:1012D200070EF76403D00800F55005D0F6CFE1FF02
:1012E200F7CFE2FFE750ECEC0AF00B4A0C2A0B5066
:1012F2000724096E0C5008200A6E09C0F6FF0AC0C6
:10130200F7FFF86A070EF76403D00800F55005D01E
:10131200F6CFE1FFF7CFE2FFE7500009D8A494EF40
:1013220009F096EF09F05EEF09F01200000E03ECEF
:101332000AF01A0E066EF80EE82EFED7062EFCD71D
:1013420000D0030E4FEC0BF0070E066E7D0EE82E5A
:10135200FED7062EFCD700F0030E4FEC0BF00F0E5B
:10136200066E480EE82EFED7062EFCD7030E4FEC73
:101372000BF0020E4FEC0BF0020E4FEC0BF0080ECE
:101382004FEC0BF0000E4FEC0BF00C0E4FEC0BF091
:10139200000E4FEC0BF0060E4FEC0BF01200076E36
:1013A2000704D8A4D7EF09F0D9EF09F0EAEF09F062
:1013B20006507F0F0A6E0A380F0B086E0A500F0B89
:1013C200096E08504FEC0BF009504FEC0BF002EF96
:1013D2000AF0020E0718D8A4F1EF09F0F3EF09F0B2
:1013E20002EF0AF00650BF0F0A6E0A380F0B086EA2
:1013F2000A500F0B096E08504FEC0BF009504FECDE
:101402000BF01200036E03A009EF0AF00BEF0AF0D3
:101412000EEF0AF08C880FEF0AF08C9803A214EFFB
:101422000AF016EF0AF019EF0AF08C8A1AEF0AF0A6
:101432008C9A03A41FEF0AF021EF0AF024EF0AF0BE
:101442008C8C25EF0AF08C9C03A62AEF0AF02CEF75
:101452000AF02FEF0AF08C8E30EF0AF08C9E120009
:10146200E20EF66E160EF76E000EF86E00EE8DF0BE
:1014720010EE09F00900F5CFEEFFE550E150FAE178
:10148200EE0EF66E160EF76E000EF86E0900F5CF30
:101492005CF000EE60F02D0EEE6AE806FDE100EE73
:1014A20055F0070EEE6AE806FDE15D905D92000ED2
:1014B200F86E000109EF04F03BC03FF03CC040F081
:1014C20071EF0AF039C02BF03AC02CF03F0E2D6EAE
:1014D200000E2E6E3DC02FF03EC030F01EEC06F026
:1014E2003FC0F6FF40C0F7FF0800F5500009D8A43E
:1014F2007DEF0AF07FEF0AF063EF0AF0000E3A6E1A
:10150200000E396E1200450E476E000E486E41C045
:1015120049F042C04AF0000E4D6E000E4C6E000EB5
:10152200546E000E536E490E396E000E3A6E43C071
:101532003BF044C03CF0470E3D6E000E3E6E5DEC4B
:101542000AF04C504124D96E4D504220DA6EDF6AC7
:101552001200000E126E000E116EBBEF0AF010C0E8
:1015620003F0046A0EC005F00FC006F03BEC07F072
:10157200114A122A11500C24D96E12500D20DA6E23
:10158200DF50106E1050D8A4C9EF0AF0CBEF0AF06A
:10159200B0EF0AF012000ABED9EF0AF00A5006E1D3
:1015A2000904D8B0D7EF0AF0D9EF0AF0E7EF0AF052
:1015B20009C00BF00AC00CF00B1E0C1E0B4A0C2AC1
:1015C2000BC009F00CC00AF0EBEF0AF009C009F0F9
:1015D2000AC00AF01200066E06500F0B046E065087
:1015E200F00B056E8C8405380F0B03EC0AF08C8629
:1015F2000D0EE82EFED700F08C96045003EC0AF094
:101602008C860D0EE82EFED700F08C961200035049
:101612000502F3CF07F0F4CF08F003500602F350AF
:10162200082604500502F350082607C003F008C03C
:1016320004F01200260EAC6E900EAB6E020EB86E67
:10164200190EAF6E9D989F8A9E989E9A9D8AF28EE1
:10165200F28C000EAE6E12005BC0ADFF9EA834EF9E
:101662000BF036EF0BF02FEF0BF0ACA23BEF0BF0D1
:101672003DEF0BF036EF0BF012003F0E926E000EB4
:10168200936E800E946E000E956E9668D08E0F0E3D
:10169200C16E070EB46E000E836E1200056E8C943E
:1016A200055003EC0AF08C86060E046E300EE82E0E
:1016B200FED7042EFCD700D08C961200010EC26E0B
:1016C200000EC16EA10EC06E9D8C9E9CF28EF28C9D
:1016D2001200000E4FEC0BF0010E4FEC0BF012005B
:0916E20078780A003078780A00DB
:0316EC00120002E7
:020000040020DA
:08000000FFFFFFFFFFFFFFFF00
:020000040030CA
:0E00000000001E1EFF8381FF00C00FE00F40B6
:00000001FF
